{
  "contractName": "ModelMarketplace",
  "abi": [
    {
      "inputs": [],
      "stateMutability": "nonpayable",
      "type": "constructor"
    },
    {
      "anonymous": false,
      "inputs": [
        {
          "indexed": true,
          "internalType": "uint256",
          "name": "id",
          "type": "uint256"
        },
        {
          "indexed": true,
          "internalType": "address",
          "name": "newOwner",
          "type": "address"
        },
        {
          "indexed": false,
          "internalType": "uint256",
          "name": "price",
          "type": "uint256"
        }
      ],
      "name": "ModelPurchased",
      "type": "event"
    },
    {
      "anonymous": false,
      "inputs": [
        {
          "indexed": true,
          "internalType": "uint256",
          "name": "id",
          "type": "uint256"
        },
        {
          "indexed": true,
          "internalType": "address",
          "name": "owner",
          "type": "address"
        },
        {
          "indexed": false,
          "internalType": "uint256",
          "name": "price",
          "type": "uint256"
        }
      ],
      "name": "ModelUploaded",
      "type": "event"
    },
    {
      "anonymous": false,
      "inputs": [
        {
          "indexed": true,
          "internalType": "uint256",
          "name": "id",
          "type": "uint256"
        },
        {
          "indexed": false,
          "internalType": "uint256",
          "name": "newPrice",
          "type": "uint256"
        }
      ],
      "name": "PriceUpdated",
      "type": "event"
    },
    {
      "inputs": [],
      "name": "modelCount",
      "outputs": [
        {
          "internalType": "uint256",
          "name": "",
          "type": "uint256"
        }
      ],
      "stateMutability": "view",
      "type": "function",
      "constant": true
    },
    {
      "inputs": [
        {
          "internalType": "uint256",
          "name": "",
          "type": "uint256"
        }
      ],
      "name": "models",
      "outputs": [
        {
          "internalType": "uint256",
          "name": "id",
          "type": "uint256"
        },
        {
          "internalType": "string",
          "name": "name",
          "type": "string"
        },
        {
          "internalType": "string",
          "name": "category",
          "type": "string"
        },
        {
          "internalType": "string",
          "name": "learningTechnique",
          "type": "string"
        },
        {
          "internalType": "string",
          "name": "ipfsHash",
          "type": "string"
        },
        {
          "internalType": "address payable",
          "name": "owner",
          "type": "address"
        },
        {
          "internalType": "uint256",
          "name": "price",
          "type": "uint256"
        },
        {
          "internalType": "bool",
          "name": "isForSale",
          "type": "bool"
        },
        {
          "internalType": "string",
          "name": "description",
          "type": "string"
        }
      ],
      "stateMutability": "view",
      "type": "function",
      "constant": true
    },
    {
      "inputs": [
        {
          "internalType": "address",
          "name": "",
          "type": "address"
        },
        {
          "internalType": "uint256",
          "name": "",
          "type": "uint256"
        }
      ],
      "name": "userModels",
      "outputs": [
        {
          "internalType": "uint256",
          "name": "",
          "type": "uint256"
        }
      ],
      "stateMutability": "view",
      "type": "function",
      "constant": true
    },
    {
      "inputs": [
        {
          "internalType": "string",
          "name": "_name",
          "type": "string"
        },
        {
          "internalType": "string",
          "name": "_category",
          "type": "string"
        },
        {
          "internalType": "string",
          "name": "_learningTechnique",
          "type": "string"
        },
        {
          "internalType": "string",
          "name": "_ipfsHash",
          "type": "string"
        },
        {
          "internalType": "uint256",
          "name": "_price",
          "type": "uint256"
        },
        {
          "internalType": "bool",
          "name": "_isForSale",
          "type": "bool"
        },
        {
          "internalType": "string",
          "name": "_description",
          "type": "string"
        }
      ],
      "name": "uploadModel",
      "outputs": [],
      "stateMutability": "nonpayable",
      "type": "function"
    },
    {
      "inputs": [],
      "name": "getAllModels",
      "outputs": [
        {
          "components": [
            {
              "internalType": "uint256",
              "name": "id",
              "type": "uint256"
            },
            {
              "internalType": "string",
              "name": "name",
              "type": "string"
            },
            {
              "internalType": "string",
              "name": "category",
              "type": "string"
            },
            {
              "internalType": "string",
              "name": "learningTechnique",
              "type": "string"
            },
            {
              "internalType": "string",
              "name": "ipfsHash",
              "type": "string"
            },
            {
              "internalType": "address payable",
              "name": "owner",
              "type": "address"
            },
            {
              "internalType": "uint256",
              "name": "price",
              "type": "uint256"
            },
            {
              "internalType": "bool",
              "name": "isForSale",
              "type": "bool"
            },
            {
              "internalType": "string",
              "name": "description",
              "type": "string"
            }
          ],
          "internalType": "struct ModelMarketplace.Model[]",
          "name": "",
          "type": "tuple[]"
        }
      ],
      "stateMutability": "view",
      "type": "function",
      "constant": true
    },
    {
      "inputs": [
        {
          "internalType": "uint256",
          "name": "_id",
          "type": "uint256"
        }
      ],
      "name": "buyModel",
      "outputs": [],
      "stateMutability": "payable",
      "type": "function",
      "payable": true
    },
    {
      "inputs": [
        {
          "internalType": "uint256",
          "name": "_id",
          "type": "uint256"
        },
        {
          "internalType": "uint256",
          "name": "_newPrice",
          "type": "uint256"
        }
      ],
      "name": "changePrice",
      "outputs": [],
      "stateMutability": "nonpayable",
      "type": "function"
    }
  ],
  "bytecode": "0x6080604052348015600e575f5ffd5b505f5f81905550612064806100225f395ff3fe60806040526004361061006f575f3560e01c8063a9a5cb3a1161004d578063a9a5cb3a1461011b578063b3de019c14610145578063bf6a6fc11461016d578063c6a645fe146101895761006f565b80630747b525146100735780630f4d2a841461009b5780636a030ca9146100d7575b5f5ffd5b34801561007e575f5ffd5b50610099600480360381019061009491906112c1565b6101b3565b005b3480156100a6575f5ffd5b506100c160048036038101906100bc9190611444565b610526565b6040516100ce9190611491565b60405180910390f35b3480156100e2575f5ffd5b506100fd60048036038101906100f891906114aa565b610551565b60405161011299989796959493929190611564565b60405180910390f35b348015610126575f5ffd5b5061012f610864565b60405161013c9190611820565b60405180910390f35b348015610150575f5ffd5b5061016b60048036038101906101669190611840565b610c80565b005b610187600480360381019061018291906114aa565b610dfc565b005b348015610194575f5ffd5b5061019d6110a7565b6040516101aa9190611491565b60405180910390f35b5f8751116101f6576040517f08c379a00000000000000000000000000000000000000000000000000000000081526004016101ed906118c8565b60405180910390fd5b5f865111610239576040517f08c379a000000000000000000000000000000000000000000000000000000000815260040161023090611930565b60405180910390fd5b5f85511161027c576040517f08c379a000000000000000000000000000000000000000000000000000000000815260040161027390611998565b60405180910390fd5b5f8451116102bf576040517f08c379a00000000000000000000000000000000000000000000000000000000081526004016102b690611a00565b60405180910390fd5b5f8311610301576040517f08c379a00000000000000000000000000000000000000000000000000000000081526004016102f890611a68565b60405180910390fd5b5f5f81548092919061031290611ab3565b91905055506040518061012001604052805f5481526020018881526020018781526020018681526020018581526020013373ffffffffffffffffffffffffffffffffffffffff16815260200184815260200183151581526020018281525060015f5f5481526020019081526020015f205f820151815f0155602082015181600101908161039f9190611cf7565b5060408201518160020190816103b59190611cf7565b5060608201518160030190816103cb9190611cf7565b5060808201518160040190816103e19190611cf7565b5060a0820151816005015f6101000a81548173ffffffffffffffffffffffffffffffffffffffff021916908373ffffffffffffffffffffffffffffffffffffffff16021790555060c0820151816006015560e0820151816007015f6101000a81548160ff0219169083151502179055506101008201518160080190816104679190611cf7565b5090505060025f3373ffffffffffffffffffffffffffffffffffffffff1673ffffffffffffffffffffffffffffffffffffffff1681526020019081526020015f205f54908060018154018082558091505060019003905f5260205f20015f90919091909150553373ffffffffffffffffffffffffffffffffffffffff165f547f9cb45667768652a08b25c9da1149453eeb6d33813585b672690e0d738a84ec75856040516105159190611491565b60405180910390a350505050505050565b6002602052815f5260405f20818154811061053f575f80fd5b905f5260205f20015f91509150505481565b6001602052805f5260405f205f91509050805f01549080600101805461057690611b27565b80601f01602080910402602001604051908101604052809291908181526020018280546105a290611b27565b80156105ed5780601f106105c4576101008083540402835291602001916105ed565b820191905f5260205f20905b8154815290600101906020018083116105d057829003601f168201915b50505050509080600201805461060290611b27565b80601f016020809104026020016040519081016040528092919081815260200182805461062e90611b27565b80156106795780601f1061065057610100808354040283529160200191610679565b820191905f5260205f20905b81548152906001019060200180831161065c57829003601f168201915b50505050509080600301805461068e90611b27565b80601f01602080910402602001604051908101604052809291908181526020018280546106ba90611b27565b80156107055780601f106106dc57610100808354040283529160200191610705565b820191905f5260205f20905b8154815290600101906020018083116106e857829003601f168201915b50505050509080600401805461071a90611b27565b80601f016020809104026020016040519081016040528092919081815260200182805461074690611b27565b80156107915780601f1061076857610100808354040283529160200191610791565b820191905f5260205f20905b81548152906001019060200180831161077457829003601f168201915b505050505090806005015f9054906101000a900473ffffffffffffffffffffffffffffffffffffffff1690806006015490806007015f9054906101000a900460ff16908060080180546107e390611b27565b80601f016020809104026020016040519081016040528092919081815260200182805461080f90611b27565b801561085a5780601f106108315761010080835404028352916020019161085a565b820191905f5260205f20905b81548152906001019060200180831161083d57829003601f168201915b5050505050905089565b60605f5f5467ffffffffffffffff81111561088257610881611135565b5b6040519080825280602002602001820160405280156108bb57816020015b6108a86110ac565b8152602001906001900390816108a05790505b5090505f600190505b5f548111610c785760015f8281526020019081526020015f20604051806101200160405290815f820154815260200160018201805461090290611b27565b80601f016020809104026020016040519081016040528092919081815260200182805461092e90611b27565b80156109795780601f1061095057610100808354040283529160200191610979565b820191905f5260205f20905b81548152906001019060200180831161095c57829003601f168201915b5050505050815260200160028201805461099290611b27565b80601f01602080910402602001604051908101604052809291908181526020018280546109be90611b27565b8015610a095780601f106109e057610100808354040283529160200191610a09565b820191905f5260205f20905b8154815290600101906020018083116109ec57829003601f168201915b50505050508152602001600382018054610a2290611b27565b80601f0160208091040260200160405190810160405280929190818152602001828054610a4e90611b27565b8015610a995780601f10610a7057610100808354040283529160200191610a99565b820191905f5260205f20905b815481529060010190602001808311610a7c57829003601f168201915b50505050508152602001600482018054610ab290611b27565b80601f0160208091040260200160405190810160405280929190818152602001828054610ade90611b27565b8015610b295780601f10610b0057610100808354040283529160200191610b29565b820191905f5260205f20905b815481529060010190602001808311610b0c57829003601f168201915b50505050508152602001600582015f9054906101000a900473ffffffffffffffffffffffffffffffffffffffff1673ffffffffffffffffffffffffffffffffffffffff1673ffffffffffffffffffffffffffffffffffffffff16815260200160068201548152602001600782015f9054906101000a900460ff16151515158152602001600882018054610bbb90611b27565b80601f0160208091040260200160405190810160405280929190818152602001828054610be790611b27565b8015610c325780601f10610c0957610100808354040283529160200191610c32565b820191905f5260205f20905b815481529060010190602001808311610c1557829003601f168201915b50505050508152505082600183610c499190611dc6565b81518110610c5a57610c59611df9565b5b60200260200101819052508080610c7090611ab3565b9150506108c4565b508091505090565b5f82118015610c9057505f548211155b610ccf576040517f08c379a0000000000000000000000000000000000000000000000000000000008152600401610cc690611e70565b60405180910390fd5b5f60015f8481526020019081526020015f209050806005015f9054906101000a900473ffffffffffffffffffffffffffffffffffffffff1673ffffffffffffffffffffffffffffffffffffffff163373ffffffffffffffffffffffffffffffffffffffff1614610d74576040517f08c379a0000000000000000000000000000000000000000000000000000000008152600401610d6b90611ed8565b60405180910390fd5b5f8211610db6576040517f08c379a0000000000000000000000000000000000000000000000000000000008152600401610dad90611a68565b60405180910390fd5b818160060181905550827f945c1c4e99aa89f648fbfe3df471b916f719e16d960fcec0737d4d56bd69683883604051610def9190611491565b60405180910390a2505050565b5f81118015610e0c57505f548111155b610e4b576040517f08c379a0000000000000000000000000000000000000000000000000000000008152600401610e4290611e70565b60405180910390fd5b5f60015f8381526020019081526020015f209050806007015f9054906101000a900460ff16610eaf576040517f08c379a0000000000000000000000000000000000000000000000000000000008152600401610ea690611f40565b60405180910390fd5b8060060154341015610ef6576040517f08c379a0000000000000000000000000000000000000000000000000000000008152600401610eed90611fa8565b60405180910390fd5b806005015f9054906101000a900473ffffffffffffffffffffffffffffffffffffffff1673ffffffffffffffffffffffffffffffffffffffff163373ffffffffffffffffffffffffffffffffffffffff1603610f87576040517f08c379a0000000000000000000000000000000000000000000000000000000008152600401610f7e90612010565b60405180910390fd5b5f816005015f9054906101000a900473ffffffffffffffffffffffffffffffffffffffff16905033826005015f6101000a81548173ffffffffffffffffffffffffffffffffffffffff021916908373ffffffffffffffffffffffffffffffffffffffff1602179055505f826007015f6101000a81548160ff0219169083151502179055508073ffffffffffffffffffffffffffffffffffffffff166108fc3490811502906040515f60405180830381858888f1935050505015801561104e573d5f5f3e3d5ffd5b503373ffffffffffffffffffffffffffffffffffffffff16837fb5d54ea46e4c298281d5e6ccd4df1ac37f8d49fa68ba9984d1677d046025bb11846006015460405161109a9190611491565b60405180910390a3505050565b5f5481565b6040518061012001604052805f8152602001606081526020016060815260200160608152602001606081526020015f73ffffffffffffffffffffffffffffffffffffffff1681526020015f81526020015f15158152602001606081525090565b5f604051905090565b5f5ffd5b5f5ffd5b5f5ffd5b5f5ffd5b5f601f19601f8301169050919050565b7f4e487b71000000000000000000000000000000000000000000000000000000005f52604160045260245ffd5b61116b82611125565b810181811067ffffffffffffffff8211171561118a57611189611135565b5b80604052505050565b5f61119c61110c565b90506111a88282611162565b919050565b5f67ffffffffffffffff8211156111c7576111c6611135565b5b6111d082611125565b9050602081019050919050565b828183375f83830152505050565b5f6111fd6111f8846111ad565b611193565b90508281526020810184848401111561121957611218611121565b5b6112248482856111dd565b509392505050565b5f82601f8301126112405761123f61111d565b5b81356112508482602086016111eb565b91505092915050565b5f819050919050565b61126b81611259565b8114611275575f5ffd5b50565b5f8135905061128681611262565b92915050565b5f8115159050919050565b6112a08161128c565b81146112aa575f5ffd5b50565b5f813590506112bb81611297565b92915050565b5f5f5f5f5f5f5f60e0888a0312156112dc576112db611115565b5b5f88013567ffffffffffffffff8111156112f9576112f8611119565b5b6113058a828b0161122c565b975050602088013567ffffffffffffffff81111561132657611325611119565b5b6113328a828b0161122c565b965050604088013567ffffffffffffffff81111561135357611352611119565b5b61135f8a828b0161122c565b955050606088013567ffffffffffffffff8111156113805761137f611119565b5b61138c8a828b0161122c565b945050608061139d8a828b01611278565b93505060a06113ae8a828b016112ad565b92505060c088013567ffffffffffffffff8111156113cf576113ce611119565b5b6113db8a828b0161122c565b91505092959891949750929550565b5f73ffffffffffffffffffffffffffffffffffffffff82169050919050565b5f611413826113ea565b9050919050565b61142381611409565b811461142d575f5ffd5b50565b5f8135905061143e8161141a565b92915050565b5f5f6040838503121561145a57611459611115565b5b5f61146785828601611430565b925050602061147885828601611278565b9150509250929050565b61148b81611259565b82525050565b5f6020820190506114a45f830184611482565b92915050565b5f602082840312156114bf576114be611115565b5b5f6114cc84828501611278565b91505092915050565b5f81519050919050565b5f82825260208201905092915050565b8281835e5f83830152505050565b5f611507826114d5565b61151181856114df565b93506115218185602086016114ef565b61152a81611125565b840191505092915050565b5f61153f826113ea565b9050919050565b61154f81611535565b82525050565b61155e8161128c565b82525050565b5f610120820190506115785f83018c611482565b818103602083015261158a818b6114fd565b9050818103604083015261159e818a6114fd565b905081810360608301526115b281896114fd565b905081810360808301526115c681886114fd565b90506115d560a0830187611546565b6115e260c0830186611482565b6115ef60e0830185611555565b81810361010083015261160281846114fd565b90509a9950505050505050505050565b5f81519050919050565b5f82825260208201905092915050565b5f819050602082019050919050565b61164481611259565b82525050565b5f82825260208201905092915050565b5f611664826114d5565b61166e818561164a565b935061167e8185602086016114ef565b61168781611125565b840191505092915050565b61169b81611535565b82525050565b6116aa8161128c565b82525050565b5f61012083015f8301516116c65f86018261163b565b50602083015184820360208601526116de828261165a565b915050604083015184820360408601526116f8828261165a565b91505060608301518482036060860152611712828261165a565b9150506080830151848203608086015261172c828261165a565b91505060a083015161174160a0860182611692565b5060c083015161175460c086018261163b565b5060e083015161176760e08601826116a1565b50610100830151848203610100860152611781828261165a565b9150508091505092915050565b5f61179983836116b0565b905092915050565b5f602082019050919050565b5f6117b782611612565b6117c1818561161c565b9350836020820285016117d38561162c565b805f5b8581101561180e57848403895281516117ef858261178e565b94506117fa836117a1565b925060208a019950506001810190506117d6565b50829750879550505050505092915050565b5f6020820190508181035f83015261183881846117ad565b905092915050565b5f5f6040838503121561185657611855611115565b5b5f61186385828601611278565b925050602061187485828601611278565b9150509250929050565b7f4d6f64656c206e616d65207265717569726564000000000000000000000000005f82015250565b5f6118b26013836114df565b91506118bd8261187e565b602082019050919050565b5f6020820190508181035f8301526118df816118a6565b9050919050565b7f43617465676f72792072657175697265640000000000000000000000000000005f82015250565b5f61191a6011836114df565b9150611925826118e6565b602082019050919050565b5f6020820190508181035f8301526119478161190e565b9050919050565b7f4c6561726e696e6720746563686e6971756520726571756972656400000000005f82015250565b5f611982601b836114df565b915061198d8261194e565b602082019050919050565b5f6020820190508181035f8301526119af81611976565b9050919050565b7f49504653206861736820726571756972656400000000000000000000000000005f82015250565b5f6119ea6012836114df565b91506119f5826119b6565b602082019050919050565b5f6020820190508181035f830152611a17816119de565b9050919050565b7f5072696365206d7573742062652067726561746572207468616e207a65726f005f82015250565b5f611a52601f836114df565b9150611a5d82611a1e565b602082019050919050565b5f6020820190508181035f830152611a7f81611a46565b9050919050565b7f4e487b71000000000000000000000000000000000000000000000000000000005f52601160045260245ffd5b5f611abd82611259565b91507fffffffffffffffffffffffffffffffffffffffffffffffffffffffffffffffff8203611aef57611aee611a86565b5b600182019050919050565b7f4e487b71000000000000000000000000000000000000000000000000000000005f52602260045260245ffd5b5f6002820490506001821680611b3e57607f821691505b602082108103611b5157611b50611afa565b5b50919050565b5f819050815f5260205f209050919050565b5f6020601f8301049050919050565b5f82821b905092915050565b5f60088302611bb37fffffffffffffffffffffffffffffffffffffffffffffffffffffffffffffffff82611b78565b611bbd8683611b78565b95508019841693508086168417925050509392505050565b5f819050919050565b5f611bf8611bf3611bee84611259565b611bd5565b611259565b9050919050565b5f819050919050565b611c1183611bde565b611c25611c1d82611bff565b848454611b84565b825550505050565b5f5f905090565b611c3c611c2d565b611c47818484611c08565b505050565b5b81811015611c6a57611c5f5f82611c34565b600181019050611c4d565b5050565b601f821115611caf57611c8081611b57565b611c8984611b69565b81016020851015611c98578190505b611cac611ca485611b69565b830182611c4c565b50505b505050565b5f82821c905092915050565b5f611ccf5f1984600802611cb4565b1980831691505092915050565b5f611ce78383611cc0565b9150826002028217905092915050565b611d00826114d5565b67ffffffffffffffff811115611d1957611d18611135565b5b611d238254611b27565b611d2e828285611c6e565b5f60209050601f831160018114611d5f575f8415611d4d578287015190505b611d578582611cdc565b865550611dbe565b601f198416611d6d86611b57565b5f5b82811015611d9457848901518255600182019150602085019450602081019050611d6f565b86831015611db15784890151611dad601f891682611cc0565b8355505b6001600288020188555050505b505050505050565b5f611dd082611259565b9150611ddb83611259565b9250828203905081811115611df357611df2611a86565b5b92915050565b7f4e487b71000000000000000000000000000000000000000000000000000000005f52603260045260245ffd5b7f496e76616c6964206d6f64656c204944000000000000000000000000000000005f82015250565b5f611e5a6010836114df565b9150611e6582611e26565b602082019050919050565b5f6020820190508181035f830152611e8781611e4e565b9050919050565b7f4f6e6c79206f776e65722063616e206368616e676520707269636500000000005f82015250565b5f611ec2601b836114df565b9150611ecd82611e8e565b602082019050919050565b5f6020820190508181035f830152611eef81611eb6565b9050919050565b7f4d6f64656c206e6f7420666f722073616c6500000000000000000000000000005f82015250565b5f611f2a6012836114df565b9150611f3582611ef6565b602082019050919050565b5f6020820190508181035f830152611f5781611f1e565b9050919050565b7f496e73756666696369656e742066756e647300000000000000000000000000005f82015250565b5f611f926012836114df565b9150611f9d82611f5e565b602082019050919050565b5f6020820190508181035f830152611fbf81611f86565b9050919050565b7f43616e6e6f742062757920796f7572206f776e206d6f64656c000000000000005f82015250565b5f611ffa6019836114df565b915061200582611fc6565b602082019050919050565b5f6020820190508181035f83015261202781611fee565b905091905056fea2646970667358221220e5d86a9e6045f30002a6d0e64b32bebdc1ec57e2b0e0a214eddfda767a2454a264736f6c634300081c0033",
  "immutableReferences": {},
  "source": "// SPDX-License-Identifier: MIT\r\npragma solidity ^0.8.28;\r\n\r\ncontract ModelMarketplace {\r\n    struct Model {\r\n        uint256 id;\r\n        string name;\r\n        string category;\r\n        string learningTechnique;\r\n        string ipfsHash;\r\n        address payable owner;\r\n        uint256 price;\r\n        bool isForSale;\r\n        string description;\r\n    }\r\n\r\n    uint256 public modelCount;\r\n    mapping(uint256 => Model) public models;\r\n    mapping(address => uint256[]) public userModels;\r\n\r\n    event ModelUploaded(uint256 indexed id, address indexed owner, uint256 price);\r\n    event ModelPurchased(uint256 indexed id, address indexed newOwner, uint256 price);\r\n    event PriceUpdated(uint256 indexed id, uint256 newPrice);\r\n\r\n    constructor() {\r\n        modelCount = 0;\r\n    }\r\n\r\n    //  Upload a new model \r\n    function uploadModel(\r\n        string memory _name,\r\n        string memory _category,\r\n        string memory _learningTechnique,\r\n        string memory _ipfsHash,\r\n        uint256 _price,\r\n        bool _isForSale,\r\n        string memory _description\r\n    ) public {\r\n        require(bytes(_name).length > 0, \"Model name required\");\r\n        require(bytes(_category).length > 0, \"Category required\");\r\n        require(bytes(_learningTechnique).length > 0, \"Learning technique required\");\r\n        require(bytes(_ipfsHash).length > 0, \"IPFS hash required\");\r\n        require(_price > 0, \"Price must be greater than zero\");\r\n\r\n        modelCount++;\r\n        models[modelCount] = Model(\r\n            modelCount,\r\n            _name,\r\n            _category,\r\n            _learningTechnique,\r\n            _ipfsHash,\r\n            payable(msg.sender),\r\n            _price,\r\n            _isForSale,\r\n            _description\r\n        );\r\n\r\n        userModels[msg.sender].push(modelCount);\r\n\r\n        emit ModelUploaded(modelCount, msg.sender, _price);\r\n    }\r\n\r\n    //  Fetch all models safely\r\n    function getAllModels() public view returns (Model[] memory) {\r\n        Model[] memory allModels = new Model[](modelCount);\r\n        for (uint256 i = 1; i <= modelCount; i++) {\r\n            allModels[i - 1] = models[i]; \r\n        }\r\n        return allModels;\r\n    }\r\n\r\n    //  Buy a model & transfer ownership\r\n    function buyModel(uint256 _id) public payable {\r\n        require(_id > 0 && _id <= modelCount, \"Invalid model ID\");\r\n        Model storage model = models[_id];\r\n        require(model.isForSale, \"Model not for sale\");\r\n        require(msg.value >= model.price, \"Insufficient funds\");\r\n        require(msg.sender != model.owner, \"Cannot buy your own model\");\r\n\r\n        address payable previousOwner = model.owner;\r\n        model.owner = payable(msg.sender);\r\n        model.isForSale = false;\r\n\r\n        previousOwner.transfer(msg.value);\r\n\r\n        emit ModelPurchased(_id, msg.sender, model.price);\r\n    }\r\n\r\n    //  Change the price of a model (only owner)\r\n    function changePrice(uint256 _id, uint256 _newPrice) public {\r\n        require(_id > 0 && _id <= modelCount, \"Invalid model ID\");\r\n        Model storage model = models[_id];\r\n        require(msg.sender == model.owner, \"Only owner can change price\");\r\n        require(_newPrice > 0, \"Price must be greater than zero\");\r\n\r\n        model.price = _newPrice;\r\n        emit PriceUpdated(_id, _newPrice);\r\n    }\r\n}\r\n",
  "sourcePath": "X:\\Projects 2.0\\AiModels\\backend\\blockchain1.0\\contracts\\ModelMarketplace.sol",
  "compiler": {
    "name": "solc",
    "version": "0.8.28+commit.7893614a.Emscripten.clang"
  },
  "schemaVersion": "3.4.16",
  "updatedAt": "2025-03-21T17:32:11.098Z",
  "networkType": "ethereum",
  "devdoc": {
    "kind": "dev",
    "methods": {},
    "version": 1
  },
  "userdoc": {
    "kind": "user",
    "methods": {},
    "version": 1
  }
}