{
  "contractName": "ModelMarketplace",
  "abi": [
    {
      "inputs": [],
      "stateMutability": "nonpayable",
      "type": "constructor"
    },
    {
      "anonymous": false,
      "inputs": [
        {
          "indexed": true,
          "internalType": "uint256",
          "name": "id",
          "type": "uint256"
        },
        {
          "indexed": true,
          "internalType": "address",
          "name": "newOwner",
          "type": "address"
        },
        {
          "indexed": false,
          "internalType": "uint256",
          "name": "price",
          "type": "uint256"
        }
      ],
      "name": "ModelPurchased",
      "type": "event"
    },
    {
      "anonymous": false,
      "inputs": [
        {
          "indexed": true,
          "internalType": "uint256",
          "name": "id",
          "type": "uint256"
        },
        {
          "indexed": true,
          "internalType": "address",
          "name": "owner",
          "type": "address"
        },
        {
          "indexed": false,
          "internalType": "uint256",
          "name": "price",
          "type": "uint256"
        }
      ],
      "name": "ModelUploaded",
      "type": "event"
    },
    {
      "anonymous": false,
      "inputs": [
        {
          "indexed": true,
          "internalType": "uint256",
          "name": "id",
          "type": "uint256"
        },
        {
          "indexed": false,
          "internalType": "uint256",
          "name": "newPrice",
          "type": "uint256"
        }
      ],
      "name": "PriceUpdated",
      "type": "event"
    },
    {
      "inputs": [],
      "name": "modelCount",
      "outputs": [
        {
          "internalType": "uint256",
          "name": "",
          "type": "uint256"
        }
      ],
      "stateMutability": "view",
      "type": "function",
      "constant": true
    },
    {
      "inputs": [
        {
          "internalType": "uint256",
          "name": "",
          "type": "uint256"
        }
      ],
      "name": "models",
      "outputs": [
        {
          "internalType": "uint256",
          "name": "id",
          "type": "uint256"
        },
        {
          "internalType": "string",
          "name": "name",
          "type": "string"
        },
        {
          "internalType": "string",
          "name": "category",
          "type": "string"
        },
        {
          "internalType": "string",
          "name": "learningTechnique",
          "type": "string"
        },
        {
          "internalType": "string",
          "name": "ipfsHash",
          "type": "string"
        },
        {
          "internalType": "address payable",
          "name": "owner",
          "type": "address"
        },
        {
          "internalType": "uint256",
          "name": "price",
          "type": "uint256"
        },
        {
          "internalType": "bool",
          "name": "isForSale",
          "type": "bool"
        },
        {
          "internalType": "string",
          "name": "description",
          "type": "string"
        }
      ],
      "stateMutability": "view",
      "type": "function",
      "constant": true
    },
    {
      "inputs": [
        {
          "internalType": "address",
          "name": "",
          "type": "address"
        },
        {
          "internalType": "uint256",
          "name": "",
          "type": "uint256"
        }
      ],
      "name": "userModels",
      "outputs": [
        {
          "internalType": "uint256",
          "name": "",
          "type": "uint256"
        }
      ],
      "stateMutability": "view",
      "type": "function",
      "constant": true
    },
    {
      "inputs": [
        {
          "internalType": "string",
          "name": "_name",
          "type": "string"
        },
        {
          "internalType": "string",
          "name": "_category",
          "type": "string"
        },
        {
          "internalType": "string",
          "name": "_learningTechnique",
          "type": "string"
        },
        {
          "internalType": "string",
          "name": "_ipfsHash",
          "type": "string"
        },
        {
          "internalType": "uint256",
          "name": "_price",
          "type": "uint256"
        },
        {
          "internalType": "bool",
          "name": "_isForSale",
          "type": "bool"
        },
        {
          "internalType": "string",
          "name": "_description",
          "type": "string"
        }
      ],
      "name": "uploadModel",
      "outputs": [],
      "stateMutability": "nonpayable",
      "type": "function"
    },
    {
      "inputs": [],
      "name": "getAllModels",
      "outputs": [
        {
          "components": [
            {
              "internalType": "uint256",
              "name": "id",
              "type": "uint256"
            },
            {
              "internalType": "string",
              "name": "name",
              "type": "string"
            },
            {
              "internalType": "string",
              "name": "category",
              "type": "string"
            },
            {
              "internalType": "string",
              "name": "learningTechnique",
              "type": "string"
            },
            {
              "internalType": "string",
              "name": "ipfsHash",
              "type": "string"
            },
            {
              "internalType": "address payable",
              "name": "owner",
              "type": "address"
            },
            {
              "internalType": "uint256",
              "name": "price",
              "type": "uint256"
            },
            {
              "internalType": "bool",
              "name": "isForSale",
              "type": "bool"
            },
            {
              "internalType": "string",
              "name": "description",
              "type": "string"
            }
          ],
          "internalType": "struct ModelMarketplace.Model[]",
          "name": "",
          "type": "tuple[]"
        }
      ],
      "stateMutability": "view",
      "type": "function",
      "constant": true
    },
    {
      "inputs": [
        {
          "internalType": "uint256",
          "name": "_id",
          "type": "uint256"
        }
      ],
      "name": "buyModel",
      "outputs": [],
      "stateMutability": "payable",
      "type": "function",
      "payable": true
    },
    {
      "inputs": [
        {
          "internalType": "uint256",
          "name": "_id",
          "type": "uint256"
        },
        {
          "internalType": "uint256",
          "name": "_newPrice",
          "type": "uint256"
        }
      ],
      "name": "changePrice",
      "outputs": [],
      "stateMutability": "nonpayable",
      "type": "function"
    }
  ],
  "bytecode": "0x6080604052348015600f57600080fd5b506000805561151c806100236000396000f3fe6080604052600436106100705760003560e01c8063a9a5cb3a1161004e578063a9a5cb3a146100ff578063b3de019c14610121578063bf6a6fc114610141578063c6a645fe1461015457600080fd5b80630747b525146100755780630f4d2a84146100975780636a030ca9146100ca575b600080fd5b34801561008157600080fd5b50610095610090366004610fce565b61016a565b005b3480156100a357600080fd5b506100b76100b23660046110d4565b61047b565b6040519081526020015b60405180910390f35b3480156100d657600080fd5b506100ea6100e536600461110c565b6104ac565b6040516100c19998979695949392919061116b565b34801561010b57600080fd5b506101146107ad565b6040516100c19190611203565b34801561012d57600080fd5b5061009561013c366004611324565b610bd3565b61009561014f36600461110c565b610d1f565b34801561016057600080fd5b506100b760005481565b60008751116101b65760405162461bcd60e51b8152602060048201526013602482015272135bd9195b081b985b59481c995c5d5a5c9959606a1b60448201526064015b60405180910390fd5b60008651116101fb5760405162461bcd60e51b815260206004820152601160248201527010d85d1959dbdc9e481c995c5d5a5c9959607a1b60448201526064016101ad565b600085511161024c5760405162461bcd60e51b815260206004820152601b60248201527f4c6561726e696e6720746563686e69717565207265717569726564000000000060448201526064016101ad565b60008451116102925760405162461bcd60e51b815260206004820152601260248201527112541194c81a185cda081c995c5d5a5c995960721b60448201526064016101ad565b600083116102e25760405162461bcd60e51b815260206004820152601f60248201527f5072696365206d7573742062652067726561746572207468616e207a65726f0060448201526064016101ad565b6000805490806102f18361135c565b91905055506040518061012001604052806000548152602001888152602001878152602001868152602001858152602001336001600160a01b03168152602001848152602001831515815260200182815250600160008054815260200190815260200160002060008201518160000155602082015181600101908161037691906113f8565b506040820151600282019061038b90826113f8565b50606082015160038201906103a090826113f8565b50608082015160048201906103b590826113f8565b5060a08201516005820180546001600160a01b0319166001600160a01b0390921691909117905560c0820151600682015560e082015160078201805460ff1916911515919091179055610100820151600882019061041390826113f8565b505033600081815260026020908152604080832083548154600181018355918552838520909101559154915187815292935090917f9cb45667768652a08b25c9da1149453eeb6d33813585b672690e0d738a84ec75910160405180910390a350505050505050565b6002602052816000526040600020818154811061049757600080fd5b90600052602060002001600091509150505481565b6001602081905260009182526040909120805491810180546104cd90611375565b80601f01602080910402602001604051908101604052809291908181526020018280546104f990611375565b80156105465780601f1061051b57610100808354040283529160200191610546565b820191906000526020600020905b81548152906001019060200180831161052957829003601f168201915b50505050509080600201805461055b90611375565b80601f016020809104026020016040519081016040528092919081815260200182805461058790611375565b80156105d45780601f106105a9576101008083540402835291602001916105d4565b820191906000526020600020905b8154815290600101906020018083116105b757829003601f168201915b5050505050908060030180546105e990611375565b80601f016020809104026020016040519081016040528092919081815260200182805461061590611375565b80156106625780601f1061063757610100808354040283529160200191610662565b820191906000526020600020905b81548152906001019060200180831161064557829003601f168201915b50505050509080600401805461067790611375565b80601f01602080910402602001604051908101604052809291908181526020018280546106a390611375565b80156106f05780601f106106c5576101008083540402835291602001916106f0565b820191906000526020600020905b8154815290600101906020018083116106d357829003601f168201915b50505060058401546006850154600786015460088701805496976001600160a01b039094169692955060ff90911693509061072a90611375565b80601f016020809104026020016040519081016040528092919081815260200182805461075690611375565b80156107a35780601f10610778576101008083540402835291602001916107a3565b820191906000526020600020905b81548152906001019060200180831161078657829003601f168201915b5050505050905089565b60606000805467ffffffffffffffff8111156107cb576107cb610f14565b60405190808252806020026020018201604052801561085657816020015b610843604051806101200160405280600081526020016060815260200160608152602001606081526020016060815260200160006001600160a01b0316815260200160008152602001600015158152602001606081525090565b8152602001906001900390816107e95790505b50905060015b6000548111610bcd57600081815260016020818152604092839020835161012081019094528054845291820180549184019161089790611375565b80601f01602080910402602001604051908101604052809291908181526020018280546108c390611375565b80156109105780601f106108e557610100808354040283529160200191610910565b820191906000526020600020905b8154815290600101906020018083116108f357829003601f168201915b5050505050815260200160028201805461092990611375565b80601f016020809104026020016040519081016040528092919081815260200182805461095590611375565b80156109a25780601f10610977576101008083540402835291602001916109a2565b820191906000526020600020905b81548152906001019060200180831161098557829003601f168201915b505050505081526020016003820180546109bb90611375565b80601f01602080910402602001604051908101604052809291908181526020018280546109e790611375565b8015610a345780601f10610a0957610100808354040283529160200191610a34565b820191906000526020600020905b815481529060010190602001808311610a1757829003601f168201915b50505050508152602001600482018054610a4d90611375565b80601f0160208091040260200160405190810160405280929190818152602001828054610a7990611375565b8015610ac65780601f10610a9b57610100808354040283529160200191610ac6565b820191906000526020600020905b815481529060010190602001808311610aa957829003601f168201915b505050918352505060058201546001600160a01b0316602082015260068201546040820152600782015460ff1615156060820152600882018054608090920191610b0f90611375565b80601f0160208091040260200160405190810160405280929190818152602001828054610b3b90611375565b8015610b885780601f10610b5d57610100808354040283529160200191610b88565b820191906000526020600020905b815481529060010190602001808311610b6b57829003601f168201915b50505050508152505082600183610b9f91906114b7565b81518110610baf57610baf6114d0565b60200260200101819052508080610bc59061135c565b91505061085c565b50919050565b600082118015610be557506000548211155b610c245760405162461bcd60e51b815260206004820152601060248201526f125b9d985b1a59081b5bd9195b08125160821b60448201526064016101ad565b600082815260016020526040902060058101546001600160a01b03163314610c8e5760405162461bcd60e51b815260206004820152601b60248201527f4f6e6c79206f776e65722063616e206368616e6765207072696365000000000060448201526064016101ad565b60008211610cde5760405162461bcd60e51b815260206004820152601f60248201527f5072696365206d7573742062652067726561746572207468616e207a65726f0060448201526064016101ad565b6006810182905560405182815283907f945c1c4e99aa89f648fbfe3df471b916f719e16d960fcec0737d4d56bd6968389060200160405180910390a2505050565b600081118015610d3157506000548111155b610d705760405162461bcd60e51b815260206004820152601060248201526f125b9d985b1a59081b5bd9195b08125160821b60448201526064016101ad565b6000818152600160205260409020600781015460ff16610dc75760405162461bcd60e51b81526020600482015260126024820152714d6f64656c206e6f7420666f722073616c6560701b60448201526064016101ad565b8060060154341015610e105760405162461bcd60e51b8152602060048201526012602482015271496e73756666696369656e742066756e647360701b60448201526064016101ad565b60058101546001600160a01b03163303610e6c5760405162461bcd60e51b815260206004820152601960248201527f43616e6e6f742062757920796f7572206f776e206d6f64656c0000000000000060448201526064016101ad565b6005810180546001600160a01b03198116331790915560078201805460ff191690556040516001600160a01b039091169081903480156108fc02916000818181858888f19350505050158015610ec6573d6000803e3d6000fd5b50336001600160a01b0316837fb5d54ea46e4c298281d5e6ccd4df1ac37f8d49fa68ba9984d1677d046025bb118460060154604051610f0791815260200190565b60405180910390a3505050565b634e487b7160e01b600052604160045260246000fd5b600082601f830112610f3b57600080fd5b813567ffffffffffffffff811115610f5557610f55610f14565b604051601f8201601f19908116603f0116810167ffffffffffffffff81118282101715610f8457610f84610f14565b604052818152838201602001851015610f9c57600080fd5b816020850160208301376000918101602001919091529392505050565b80358015158114610fc957600080fd5b919050565b600080600080600080600060e0888a031215610fe957600080fd5b873567ffffffffffffffff81111561100057600080fd5b61100c8a828b01610f2a565b975050602088013567ffffffffffffffff81111561102957600080fd5b6110358a828b01610f2a565b965050604088013567ffffffffffffffff81111561105257600080fd5b61105e8a828b01610f2a565b955050606088013567ffffffffffffffff81111561107b57600080fd5b6110878a828b01610f2a565b9450506080880135925061109d60a08901610fb9565b915060c088013567ffffffffffffffff8111156110b957600080fd5b6110c58a828b01610f2a565b91505092959891949750929550565b600080604083850312156110e757600080fd5b82356001600160a01b03811681146110fe57600080fd5b946020939093013593505050565b60006020828403121561111e57600080fd5b5035919050565b6000815180845260005b8181101561114b5760208185018101518683018201520161112f565b506000602082860101526020601f19601f83011685010191505092915050565b8981526101206020820152600061118661012083018b611125565b8281036040840152611198818b611125565b905082810360608401526111ac818a611125565b905082810360808401526111c08189611125565b6001600160a01b03881660a085015260c0840187905285151560e085015283810361010085015290506111f38185611125565b9c9b505050505050505050505050565b6000602082016020835280845180835260408501915060408160051b86010192506020860160005b8281101561131857603f198786030184528151805186526020810151610120602088015261125d610120880182611125565b9050604082015187820360408901526112768282611125565b915050606082015187820360608901526112908282611125565b915050608082015187820360808901526112aa8282611125565b91505060a08201516112c760a08901826001600160a01b03169052565b5060c082015160c088015260e08201516112e560e089018215159052565b5061010082015191508681036101008801526113018183611125565b96505050602093840193919091019060010161122b565b50929695505050505050565b6000806040838503121561133757600080fd5b50508035926020909101359150565b634e487b7160e01b600052601160045260246000fd5b60006001820161136e5761136e611346565b5060010190565b600181811c9082168061138957607f821691505b602082108103610bcd57634e487b7160e01b600052602260045260246000fd5b601f8211156113f357806000526020600020601f840160051c810160208510156113d05750805b601f840160051c820191505b818110156113f057600081556001016113dc565b50505b505050565b815167ffffffffffffffff81111561141257611412610f14565b611426816114208454611375565b846113a9565b6020601f82116001811461145a57600083156114425750848201515b600019600385901b1c1916600184901b1784556113f0565b600084815260208120601f198516915b8281101561148a578785015182556020948501946001909201910161146a565b50848210156114a85786840151600019600387901b60f8161c191681555b50505050600190811b01905550565b818103818111156114ca576114ca611346565b92915050565b634e487b7160e01b600052603260045260246000fdfea2646970667358221220ec9a69e3b824881dfa70afd4a44c0b59cffd4423cd31d9c859ad494e7ee7631264736f6c634300081c0033",
  "immutableReferences": {},
  "source": "// SPDX-License-Identifier: MIT\r\npragma solidity ^0.8.28;\r\n\r\ncontract ModelMarketplace {\r\n    struct Model {\r\n        uint256 id;\r\n        string name;\r\n        string category;\r\n        string learningTechnique;\r\n        string ipfsHash;\r\n        address payable owner;\r\n        uint256 price;\r\n        bool isForSale;\r\n        string description;\r\n    }\r\n\r\n    uint256 public modelCount;\r\n    mapping(uint256 => Model) public models;\r\n    mapping(address => uint256[]) public userModels;\r\n\r\n    event ModelUploaded(uint256 indexed id, address indexed owner, uint256 price);\r\n    event ModelPurchased(uint256 indexed id, address indexed newOwner, uint256 price);\r\n    event PriceUpdated(uint256 indexed id, uint256 newPrice);\r\n\r\n    constructor() {\r\n        modelCount = 0;\r\n    }\r\n\r\n    //  Upload a new model \r\n    function uploadModel(\r\n        string memory _name,\r\n        string memory _category,\r\n        string memory _learningTechnique,\r\n        string memory _ipfsHash,\r\n        uint256 _price,\r\n        bool _isForSale,\r\n        string memory _description\r\n    ) public {\r\n        require(bytes(_name).length > 0, \"Model name required\");\r\n        require(bytes(_category).length > 0, \"Category required\");\r\n        require(bytes(_learningTechnique).length > 0, \"Learning technique required\");\r\n        require(bytes(_ipfsHash).length > 0, \"IPFS hash required\");\r\n        require(_price > 0, \"Price must be greater than zero\");\r\n\r\n        modelCount++;\r\n        models[modelCount] = Model(\r\n            modelCount,\r\n            _name,\r\n            _category,\r\n            _learningTechnique,\r\n            _ipfsHash,\r\n            payable(msg.sender),\r\n            _price,\r\n            _isForSale,\r\n            _description\r\n        );\r\n\r\n        userModels[msg.sender].push(modelCount);\r\n\r\n        emit ModelUploaded(modelCount, msg.sender, _price);\r\n    }\r\n\r\n    //  Fetch all models safely\r\n    function getAllModels() public view returns (Model[] memory) {\r\n        Model[] memory allModels = new Model[](modelCount);\r\n        for (uint256 i = 1; i <= modelCount; i++) {\r\n            allModels[i - 1] = models[i]; \r\n        }\r\n        return allModels;\r\n    }\r\n\r\n    //  Buy a model & transfer ownership\r\n    function buyModel(uint256 _id) public payable {\r\n        require(_id > 0 && _id <= modelCount, \"Invalid model ID\");\r\n        Model storage model = models[_id];\r\n        require(model.isForSale, \"Model not for sale\");\r\n        require(msg.value >= model.price, \"Insufficient funds\");\r\n        require(msg.sender != model.owner, \"Cannot buy your own model\");\r\n\r\n        address payable previousOwner = model.owner;\r\n        model.owner = payable(msg.sender);\r\n        model.isForSale = false;\r\n\r\n        previousOwner.transfer(msg.value);\r\n\r\n        emit ModelPurchased(_id, msg.sender, model.price);\r\n    }\r\n\r\n    //  Change the price of a model (only owner)\r\n    function changePrice(uint256 _id, uint256 _newPrice) public {\r\n        require(_id > 0 && _id <= modelCount, \"Invalid model ID\");\r\n        Model storage model = models[_id];\r\n        require(msg.sender == model.owner, \"Only owner can change price\");\r\n        require(_newPrice > 0, \"Price must be greater than zero\");\r\n\r\n        model.price = _newPrice;\r\n        emit PriceUpdated(_id, _newPrice);\r\n    }\r\n}\r\n",
  "sourcePath": "X:\\Projects 2\\Decentralized AI Model Market place\\backend\\blockchain\\contracts\\ModelMarketplace.sol",
  "compiler": {
    "name": "solc",
    "version": "0.8.28+commit.7893614a.Emscripten.clang"
  },
  "schemaVersion": "3.4.10",
  "updatedAt": "2025-02-13T08:09:55.829Z",
  "networkType": "ethereum",
  "devdoc": {
    "kind": "dev",
    "methods": {},
    "version": 1
  },
  "userdoc": {
    "kind": "user",
    "methods": {},
    "version": 1
  }
}